:020000040800F2
:1000000000500020410700089107000891070008F0
:100010009107000891070008910700080000000000
:100020000000000000000000000000009107000830
:100030009107000800000000910700086105000812
:100040009107000891070008910700089107000830
:100050009107000891070008710100089107000846
:100060009107000891070008910700089107000810
:100070009107000891070008910700089107000800
:1000800091070008910700089107000891070008F0
:1000900091070008910700089107000891070008E0
:1000A00091070008910700089107000891070008D0
:1000B00091070008910700089107000891070008C0
:1000C00091070008910700089107000891070008B0
:1000D00091070008910700089107000891070008A0
:1000E0009107000891070008000000009107000830
:1000F0009107000891070008910700089107000880
:10010000910700089107000891070008910700086F
:10011000910700089107000891070008910700085F
:10012000910700089107000891070008910700084F
:1001300010B5054C237833B9044B13B10448AFF321
:1001400000800123237010BD00000020000000008B
:10015000DC07000808B5034B1BB103490348AFF3A4
:10016000008008BD0000000004000020DC0700083B
:1001700080B500AF044B1B68002B02D0024B1B68FC
:10018000984700BF80BD00BF1C00002080B483B032
:1001900000AF0346FB710B46BB7113467B71FB79C5
:1001A000022B00F2AF80BB790F2B00F2AB80BB7942
:1001B000072B52D8FB79022B37D0022B00F3A280F9
:1001C000002B02D0012B18D09CE0514B1B68BA7950
:1001D00092000F2101FA02F2D24311464C4A0B4021
:1001E00013604B4B1B687979BA79920001FA02F2DD
:1001F0001146474A0B43136084E0464B1B68BA79AB
:1002000092000F2101FA02F2D2431146414A0B40FB
:100210001360404B1B687979BA79920001FA02F2B7
:1002200011463C4A0B4313606CE03B4B1B68BA79A8
:1002300092000F2101FA02F2D2431146364A0B40D6
:100240001360354B1B687979BA79920001FA02F292
:100250001146314A0B43136054E0BB79082B51D946
:10026000FB79022B36D0022B4CDC002B02D0012B69
:1002700018D047E0294B1B68BA7992000F2101FA88
:1002800002F2D2431146254A0B401360234B1B68F0
:100290007979BA79920001FA02F211461F4A0B43AA
:1002A00013602FE01E4B1B68BA7992000F2101FAF0
:1002B00002F2D24311461A4A0B401360184B1B68D6
:1002C0007979BA79920001FA02F21146144A0B4385
:1002D000136017E0134B1B68BA7992000F2101FAE3
:1002E00002F2D24311460F4A0B4013600D4B1B68BC
:1002F0007979BA79920001FA02F21146094A0B4360
:10030000136000BF00BF0C37BD4680BC704700BF04
:1003100000080140000C01400010014004080140A9
:10032000040C01400410014080B483B000AF0346C8
:10033000FB710B46BB7113467B71FB79022B64D8B2
:10034000BB790F2B61D87B79012B2AD1FB79022B4A
:100350001CD0022B56DC002B02D0012B0BD051E01D
:100360002C4B1B68BA79012101FA02F21146294A85
:100370000B43136049E0284B1B68BA79012101FA4D
:1003800002F21146244A0B4313603EE0234B1B68E4
:10039000BA79012101FA02F21146204A0B43136097
:1003A00033E07B79002B30D1FB79022B1ED0022B5E
:1003B0002ADC002B02D0012B0CD025E0154B1B684A
:1003C000BA79012101FA02F2D2431146114A0B40D7
:1003D00013601AE0104B1B68BA79012101FA02F28E
:1003E000D24311460C4A0B4013600EE00B4B1B68C6
:1003F000BA79012101FA02F2D2431146074A0B40B1
:10040000136002E000BF00E000BF00BF0C37BD4634
:1004100080BC70470C0801400C0C01400C100140DE
:1004200080B400AF2C4B1B682B4A43F001031360D0
:1004300000BF294B1B6803F00203002BF9D0274BA8
:100440001B68264A23F001031360244B1B68234AD0
:1004500023F002031360214B1B68204A23F0100392
:1004600013601E4B1B681D4A23F0200313601B4BB7
:100470001B681A4A23F040031360184B1B68174A85
:1004800023F080031360154B1B68144A23F4807318
:100490001360124B1B68114A23F4007313600F4B57
:1004A0001B680E4A23F4806313600C4B1B680B4AD5
:1004B00023F400631360094B1B68084A23F480533C
:1004C0001360064B1B68054A23F40053136000BFFA
:1004D000BD4680BC704700BF0010024004100240BF
:1004E00080B483B000AF03460A46FB711346BB716C
:1004F000BB791F2B2BD8FB79022B1CD0022B25DCC0
:10050000002B02D0012B0BD020E0134B1B68BA79D3
:10051000012101FA02F211460F4A0B43136016E063
:100520000E4B1B68BA79012101FA02F211460B4AFF
:100530000B4313600BE0094B1B68BA79012101FAE8
:1005400002F21146054A0B43136000E000BF00BFF2
:100550000C37BD4680BC7047141002401810024092
:1005600080B500AF024B1B68984700BF80BD00BF3D
:100570002000002080B400AF1D4BDB681C4A23F034
:100580001003D3601A4BDB68194A23F02003D360B1
:10059000174BDB68164A23F04003D360144BDB682B
:1005A000134A23F08003D360114BDB68104A23F415
:1005B0008073D3600E4BDB680D4A23F48063D360F5
:1005C0000B4B40F241329A60094BDB68084A23F436
:1005D0008053D360064BDB68054A43F40053D36075
:1005E000034B00221A6000BFBD4680BC704700BFAD
:1005F0000038014080B400AF044BDB68034A43F08D
:100600000803D36000BFBD4680BC7047003801407E
:1006100080B400AF044BDB68034A43F00403D360AB
:1006200000BFBD4680BC70470038014080B483B035
:1006300000AF7860074A7B68536000BF054B1B68BA
:1006400003F04003002BF9D000BF00BF0C37BD46BC
:1006500080BC70470038014080B483B000AF0023F5
:10066000FB7100BF074B1B6803F02003002BF9D080
:10067000044B5B68FB71FB7918460C37BD4680BCA8
:10068000704700BF0038014080B485B000AF78608B
:100690000023FB6003E000BFFB680133FB607B6865
:1006A0004FF4FA7203FB02F2FB689A42F3D800BFE0
:1006B00000BF1437BD4680BC7047000080B500AF56
:1006C000FFF7AEFE0E210220FFF70AFF02210220F3
:1006D000FFF706FF0A2209210020FFF757FD042239
:1006E0000A210020FFF752FD022201210020FFF71E
:1006F0004DFDFFF73FFFFFF77DFFFFF789FF362036
:10070000FFF794FF4FF47A70FFF7BEFFFFF7A4FFE7
:1007100003461A46094B1A704FF47A70FFF7B4FF7C
:10072000064B1B78362BFBD1012201210020FFF75D
:10073000FBFD41F28830FFF7A7FFF1E7240000201E
:100740000D488546AFF300800C480D490D4A002343
:1007500002E0D458C4500433C4188C42F9D30A4A76
:100760000A4C002301E013600432A242FBD300F0E4
:1007700011F8FFF7A3FFFEE7005000200000002063
:1007800000000020FC0700080000002028000020D6
:10079000FEE7000070B500260C4D0D4C641BA41044
:1007A000A64209D100F01AF800260A4D0A4C641B33
:1007B000A410A64205D170BD55F8043B98470136F8
:1007C000EEE755F8043B98470136F2E7F4070008D6
:1007D000F4070008F4070008F8070008F8B500BFA0
:1007E000F8BC08BC9E467047F8B500BFF8BC08BC12
:0407F0009E4670476A
:0407F40055010008A3
:0407F80031010008C3
:0400000508000741A7
:00000001FF
